:107000000C942A380C9447380C9447380C94473821
:107010000C9447380C9447380C9447380C944738F4
:107020000C9447380C9447380C9447380C944738E4
:107030000C9447380C94333A0C9447380C94623AC9
:107040000C9447380C9447380C9447380C944738C4
:107050000C94473811241FBECFE5D8E0DEBFCDBF6A
:1070600010E0A0E6B0E0E6E8F5E702C005900D927A
:10707000A038B107D9F711E0A0E8B0E001C01D9237
:10708000A331B107E1F70E94F8390C94C13A0C948E
:107090000038CF93DF93DB01803E10F080E041C0E9
:1070A000482F50E05695542F44275795479507B6DB
:1070B00000FCFDCFE199FECF83E0FA0180935700F9
:1070C000E89560E071E09C9111968C91119707B65C
:1070D00000FCFDCFE199FECF1296FA01E60FF11DFB
:1070E000382F20E0E901C90FD11D0E017093570020
:1070F000E89511246E5F603831F707B600FCFDCFCC
:10710000E199FECF85E0FA0180935700E89507B634
:1071100000FCFDCFE199FECF81E180935700E89517
:1071200081E0DF91CF910895282F90910501992357
:1071300069F480910701882349F4233818F42093D7
:10714000070108958FE70E94243A089530910701BE
:10715000931788F4E92FF0E0EE57FF4F2083892F33
:107160008F5F80930501381769F481E08093800078
:107170001092070108958EE70E94243A10920701A9
:107180001092050108951F9380918000813009F0CD
:107190008EC080918100882371F4809182008031BB
:1071A00009F078C080918300833009F073C0809328
:1071B000810080E570C0833061F510918200143346
:1071C00021F590918600892F8150803E08F062C0A1
:1071D0009093040184E090E065E50E949E3A85E08A
:1071E00090E0609183000E949E3A86E090E060917A
:1071F00084000E949E3A87E090E0609185000E94A2
:107200009E3A1093810084E746C0153309F042C0CE
:1072100045C0843391F4809182008633D9F5809300
:10722000810080918300815087FD34C080910601E8
:107230008F5F80930601815018C08533A1F186339A
:1072400069F5809182008633B1F4909106018091B6
:1072500004019817F8F480918300815087FD23C0C2
:107260009F5F909306019150892F64E870E00E941F
:10727000493886E710C0873369F490910601809100
:107280000401981739F487E70E94243A109281008C
:1072900081E00EC08FE70E94243A05C08FE70E946C
:1072A000243A10928100109205011092800080E033
:1072B0001F910895EF92FF920F931F93DF93CF9347
:1072C0000F92CDB7DEB719820E94123A84E998E393
:1072D0000E942E3A81E00E94933A0E948B3A80E00D
:1072E00090E07E010894E11CF11CB7010E94B13AC4
:1072F0008981803819F500E010E0F801E05AFF4F6D
:1073000080810E94243A0B3019F481E090E009C09A
:107310000D3019F482E090E004C00E3049F483E0AF
:1073200090E0B7010E94B13A8981805D0E94243AC1
:107330000F5F1F4F0031110501F718C080E090E08A
:1073400060E80E949E3A81E090E061E00E949E3AEF
:1073500082E090E061E00E949E3A83E090E060E08D
:107360000E949E3A80E00E94093AFFCF04E010E0BC
:10737000B8016C5F7E4FC8010E94B13A0F5F1F4F8A
:1073800009301105A9F780910801853549F58091EB
:107390000C018A3A29F100E010E0F801E059FF4FB2
:1073A00080810E94243A0C3019F48091090109C0AF
:1073B0000E3019F480910A0104C00F3029F4809135
:1073C0000B01805D0E94243A0F5F1F4F00311105B1
:1073D00021F70E948F3A80E00E94933A0C940000BB
:1073E0000F90CF91DF911F910F91FF90EF90089533
:1073F0000E945A390E94C33880930D018130D1F721
:1074000088E090E065E50E949E3A80E00E94093A9B
:10741000FFCF883010F4886081BD089588E181BD78
:1074200011BC089510BC83E389B988E98AB986E85C
:1074300080BD08958BB182958695817008958BB13A
:10744000881F8827881F08955D9BFECF8CB90895FB
:10745000FC015F9BFECF8CB1808308959093110156
:107460008093100108951F920F920FB60F9211246E
:107470002F933F934F935F936F937F938F939F933C
:10748000AF93BF93EF93FF93E0911001F09111013F
:10749000309711F08CB10995FF91EF91BF91AF91A9
:1074A0009F918F917F916F915F914F913F912F911C
:1074B0000F900FBE0F901F90189590930F0180931F
:1074C0000E0108951F920F920FB60F9211242F9361
:1074D0003F934F935F936F937F938F939F93AF935C
:1074E000BF93EF93FF93E0910E01F0910F0130975E
:1074F00009F00995FF91EF91BF91AF919F918F9105
:107500007F916F915F914F913F912F910F900FBE9F
:107510000F901F9018958FB780688FBF08958FB711
:107520008F778FBF0895882321F481E08BBF1BBE26
:10753000089581E08BBF82E08BBF089524E0803006
:10754000920710F080E008959FBB8EBB6DBBE19960
:10755000FECFE29AE19A80E29EE40197F1F781E0A2
:107560000895FB0124E08030920710F080E0089538
:107570009FBB8EBBE199FECFE09A8DB3808381E003
:067580000895F894FFCF0E
:10758600426F6F746C6F61646572205220562E0ACA
:107596004170706C69636174696F6E205220562E5B
:040000030000700089
:00000001FF
