:107000000C942A380C9447380C9447380C94473821
:107010000C9447380C9447380C9447380C944738F4
:107020000C9447380C9447380C9447380C944738E4
:107030000C9447380C941A3A0C9447380C94493AFB
:107040000C9447380C9447380C9447380C944738C4
:107050000C94473811241FBECFE5D8E0DEBFCDBF6A
:1070600010E0A0E6B0E0EEEEF6E702C005900D926B
:10707000A837B107D9F711E0A8E7B0E001C01D9229
:10708000AC30B107E1F70E94B8390C94753B0C9411
:107090000038CF93DF93DB01803E10F080E041C0E9
:1070A000482F50E05695542F44275795479507B6DB
:1070B00000FCFDCFE199FECF83E0FA0180935700F9
:1070C000E89560E071E09C9111968C91119707B65C
:1070D00000FCFDCFE199FECF1296FA01E60FF11DFB
:1070E000382F20E0E901C90FD11D0E017093570020
:1070F000E89511246E5F603831F707B600FCFDCFCC
:10710000E199FECF85E0FA0180935700E89507B634
:1071100000FCFDCFE199FECF81E180935700E89517
:1071200081E0DF91CF910895282F9091020199235A
:1071300069F480910401882349F4233818F42093DA
:10714000040108958FE70E940B3A089530910401DD
:10715000931788F4E92FF0E0E658FF4F2083892F3A
:107160008F5F80930201381769F481E08093780083
:107170001092040108958EE70E940B3A10920401C8
:1071800010920201089580917800813011F080E022
:107190000895809179008823B9F480917A00803134
:1071A00049F480917B00833009F0AEC08093790070
:1071B00080E5ABC0813109F0A7C081E50E940B3AA0
:1071C00080E00E94F039FFCF833051F520917A00A2
:1071D0002433C9F490917E00892F8150803E08F0BD
:1071E00093C09093FC0080917B008093FE0080917F
:1071F0007C008093FF0080917D00809300012093AC
:10720000790084E782C0253309F482C0213109F076
:107210007BC081E50E940B3A80E00E94F039FFCFED
:107220008433E1F480917A00863371F4809379009D
:1072300080917B00815087FD67C0809103018F5F43
:107240008093030181502BC0813109F05DC081E53D
:107250000E940B3A80E00E94F039FFCF853339F469
:1072600081E50E940B3A80E00E94F039FFCF86331F
:1072700009F04EC080917A008633B9F490910301F1
:107280008091FC00981708F03FC080917B008150EE
:1072900087FD43C09F5F909303019150892F6CE756
:1072A00070E00E94493886E730C0813139F481E5C9
:1072B0000E940B3A80E00E94F039FFCF873321F51E
:1072C000909103018091FC009817F1F487E70E94E8
:1072D0000B3A1092790080E090E065E50E94853AD3
:1072E00081E090E06091FE000E94853A82E090E0AB
:1072F0006091FF000E94853A83E090E06091000178
:107300000E94853A81E008958FE70E940B3A05C0FC
:107310008FE70E940B3A10927900109202011092AE
:10732000780080E00895CF93DF930E94F9390E949E
:10733000763AC0E0D0E0BE0163507F4FCE010E949C
:10734000983A2196C530D105B1F78091FD00853579
:1073500061F480910101853519F40C94000005C099
:107360008A3A19F483E080937900DF91CF910895F0
:107370000F931F93DF93CF930F92CDB7DEB70E9489
:1073800093390E94A83A80E060E041E00E94BF3A51
:1073900080E060E041E00E94093B19828E010F5FAE
:1073A0001F4FC8010E940F3A89810E9494380E94A1
:1073B000C338809305018130A1F784E090E065E552
:1073C0000E94853A80E090E065E50E94853A80E081
:1073D00060E040E00E94093B80E00E94F039FFCF6E
:1073E000883010F4886081BD089588E181BD11BCAA
:1073F000089510BC83E389B988E98AB986E880BD1D
:1074000008958BB182958695817008958BB1881F00
:107410008827881F08955D9BFECF8CB90895FC01D5
:107420005F9BFECF8CB18083089590930901809378
:10743000080108951F920F920FB60F9211242F93F7
:107440003F934F935F936F937F938F939F93AF93EC
:10745000BF93EF93FF93E0910801F09109013097FA
:1074600011F08CB10995FF91EF91BF91AF919F9170
:107470008F917F916F915F914F913F912F910F90DD
:107480000FBE0F901F9018959093070180930601EF
:1074900008951F920F920FB60F9211242F933F93CE
:1074A0004F935F936F937F938F939F93AF93BF930C
:1074B000EF93FF93E0910601F0910701309709F0F7
:1074C0000995FF91EF91BF91AF919F918F917F911E
:1074D0006F915F914F913F912F910F900FBE0F9041
:1074E0001F9018958FB780688FBF08958FB78F77DB
:1074F0008FBF0895882321F481E08BBF1BBE0895C0
:1075000081E08BBF82E08BBF089524E0803092073A
:1075100010F080E008959FBB8EBB6DBBE199FECF5C
:10752000E29AE19A80E29EE40197F1F781E0089502
:10753000FB0124E08030920710F080E008959FBBAB
:107540008EBBE199FECFE09A8DB3808381E00895F0
:1075500081E080930A010895E82F843070F48091CF
:107560000A01813051F4F0E0EE0FFF1FE059FF4FA8
:107570000190F081E02D6083089580E00895E82F68
:10758000843090F5683080F580910A01813061F592
:107590004423A9F0413041F5F0E0EE0FFF1FE05920
:1075A000FF4F0190F081E02D208181E090E002C04A
:1075B000880F991F6A95E2F7282B208313C0F0E00B
:1075C000EE0FFF1FE059FF4F0190F081E02D208169
:1075D00081E090E002C0880F991F6A95E2F78095DC
:1075E0008223808381E0089580E00895E82F84302D
:1075F00070F480910A01813051F4F0E0EE0FFF1F2A
:10760000E859FF4F0190F081E02D6083089580E0FC
:107610000895E82F843090F5683080F580910A0154
:10762000813061F54423A9F0413041F5F0E0EE0FDF
:10763000FF1FE859FF4F0190F081E02D208181E08C
:1076400090E002C0880F991F6A95E2F7282B2083EB
:1076500013C0F0E0EE0FFF1FE859FF4F0190F081DB
:10766000E02D208181E090E002C0880F991F6A958B
:10767000E2F780958223808381E0089580E0089579
:10768000E82FDB01843080F480910A01813061F4BD
:10769000F0E0EE0FFF1FE05AFF4F0190F081E02D68
:1076A00080818C9381E0089580E00895E82FDA01CD
:1076B0008430C8F46830B8F480910A01813099F4BC
:1076C000F0E0EE0FFF1FE05AFF4F0190F081E02D38
:1076D000808190E002C0959587956A95E2F7817068
:0E76E0008C9381E0089580E00895F894FFCF28
:1076EE0039003600330030003B00380035003200E0
:0876FE003A00370034003100AE
:040000030000700089
:00000001FF
